{
  "contractName": "SafeMath",
  "abi": [
    {
      "constant": true,
      "inputs": [],
      "name": "MAX_UINT256",
      "outputs": [
        {
          "name": "",
          "type": "uint256"
        }
      ],
      "payable": false,
      "stateMutability": "view",
      "type": "function"
    }
  ],
  "bytecode": "0x6080604052348015600f57600080fd5b5060bc8061001e6000396000f300608060405260043610603f576000357c0100000000000000000000000000000000000000000000000000000000900463ffffffff16806333a581d2146044575b600080fd5b348015604f57600080fd5b506056606c565b6040518082815260200191505060405180910390f35b7fffffffffffffffffffffffffffffffffffffffffffffffffffffffffffffffff815600a165627a7a72305820ce037148427f1b34a8ba7e23aa804db350129ddc5c9d88ccad8e43903d0d1d000029",
  "source": "pragma solidity ^0.4.22;\r\n\r\nimport \"./ContractReceiver.sol\";\r\n\r\n/* ERC20 contract interface */\r\n/* With ERC23/ERC223 Extensions */\r\n/* Fully backward compatible with ERC20 */\r\n/* Recommended implementation used at https://github.com/Dexaran/ERC223-token-standard/tree/Recommended */\r\ncontract ERC20 {\r\n    uint public totalSupply;\r\n\r\n    // ERC223 and ERC20 functions and events\r\n    function balanceOf(address who) public constant returns (uint);\r\n    function totalSupply() constant public returns (uint256 _supply);\r\n    function transfer(address to, uint value) public returns (bool ok);\r\n    function transfer(address to, uint value, bytes data) internal returns (bool ok);\r\n    function transfer(address to, uint value, bytes data, string customFallback) internal returns (bool ok);\r\n    event Transfer(address indexed from, address indexed to, uint value, bytes data);\r\n\r\n    // ERC223 functions\r\n    function name() constant public returns (string _name);\r\n    function symbol() constant public returns (string _symbol);\r\n    function decimals() constant public returns (uint8 _decimals);\r\n\r\n    // ERC20 functions and events\r\n    function transferFrom(address _from, address _to, uint256 _value) public returns (bool success);\r\n    function approve(address _spender, uint256 _value) public returns (bool success);\r\n    function allowance(address _owner, address _spender) constant public returns (uint256 remaining);\r\n    event Transfer(address indexed _from, address indexed _to, uint256 _value);\r\n    event Approval(address indexed _owner, address indexed _spender, uint _value);\r\n}\r\n\r\n/**\r\n * Include SafeMath Lib\r\n */\r\ncontract SafeMath {\r\n    uint256 constant public MAX_UINT256 =\r\n    0xFFFFFFFFFFFFFFFFFFFFFFFFFFFFFFFFFFFFFFFFFFFFFFFFFFFFFFFFFFFFFFFF;\r\n\r\n    function safeAdd(uint256 x, uint256 y) constant internal returns (uint256 z) {\r\n        if (x > MAX_UINT256 - y)\r\n            revert();\r\n        return x + y;\r\n    }\r\n\r\n    function safeSub(uint256 x, uint256 y) constant internal returns (uint256 z) {\r\n        if (x < y) {\r\n            revert();\r\n        }\r\n        return x - y;\r\n    }\r\n\r\n    function safeMul(uint256 x, uint256 y) constant internal returns (uint256 z) {\r\n        if (y == 0) {\r\n            return 0;\r\n        }\r\n        if (x > MAX_UINT256 / y) {\r\n            revert();\r\n        }\r\n        return x * y;\r\n    }\r\n}\r\n\r\n/*\r\n * EDOGE is an ERC20 token with ERC223 Extensions\r\n */\r\ncontract ERC223 is ERC20, SafeMath {\r\n\r\n    string public name = \"LED Token\";\r\n\r\n    string public symbol = \"LED\";\r\n\r\n    uint8 public decimals = 8;\r\n\r\n    uint256 public totalSupply = 100000000000 * 10**8;\r\n\r\n    address public owner;\r\n\r\n    bool public unlocked = false;\r\n\r\n    bool public tokenCreated = false;\r\n\r\n    bool public frozen = false;\r\n\r\n    mapping(address => uint256) balances;\r\n\r\n    mapping(address => mapping (address => uint256)) allowed;\r\n\r\n    event Frozen(uint256 time);\r\n\r\n    // Initialize to have owner have 100,000,000,000 EDOGE on contract creation\r\n    // Constructor is called only once and can not be called again (Ethereum Solidity specification)\r\n        constructor() public {\r\n\r\n        // Security check in case EVM has future flaw or exploit to call constructor multiple times\r\n        // Ensure token gets created once only\r\n        require(tokenCreated == false);\r\n        tokenCreated = true;\r\n\r\n        owner = msg.sender;\r\n        balances[owner] = totalSupply;\r\n\r\n        // Final sanity check to ensure owner balance is greater than zero\r\n        require(balances[owner] > 0);\r\n    }\r\n\r\n    modifier onlyOwner() {\r\n        require(msg.sender == owner);\r\n        _;\r\n    }\r\n\r\n    // Function to distribute tokens to list of addresses by the provided amount\r\n    // Verify and require that:\r\n    // - Balance of owner cannot be negative\r\n    // - All transfers can be fulfilled with remaining owner balance\r\n    // - No new tokens can ever be minted except originally created 100,000,000,000\r\n    function distributeAirdrop(address[] addresses, uint256 amount) onlyOwner public {\r\n        // Only allow undrop while token is locked\r\n        // After token is unlocked, this method becomes permanently disabled\r\n        require(!unlocked);\r\n\r\n        // Amount is in Wei, convert to EDOGE amount in 8 decimal places\r\n        uint256 normalizedAmount = amount * 10**8;\r\n        // Only proceed if there are enough tokens to be distributed to all addresses\r\n        // Never allow balance of owner to become negative\r\n        require(balances[owner] >= safeMul(addresses.length, normalizedAmount));\r\n        for (uint i = 0; i < addresses.length; i++) {\r\n            balances[owner] = safeSub(balanceOf(owner), normalizedAmount);\r\n            balances[addresses[i]] = safeAdd(balanceOf(addresses[i]), normalizedAmount);\r\n            emit Transfer(owner, addresses[i], normalizedAmount);\r\n        }\r\n    }\r\n\r\n    // Function to access name of token .sha\r\n    function name() constant public returns (string _name) {\r\n        return name;\r\n    }\r\n    // Function to access symbol of token .\r\n    function symbol() constant public returns (string _symbol) {\r\n        return symbol;\r\n    }\r\n    // Function to access decimals of token .\r\n    function decimals() constant public returns (uint8 _decimals) {\r\n        return decimals;\r\n    }\r\n    // Function to access total supply of tokens .\r\n    function totalSupply() constant public returns (uint256 _totalSupply) {\r\n        return totalSupply;\r\n    }\r\n\r\n    // Function to access token unlocked status.\r\n    function isUnlocked() constant public returns (bool status) {\r\n        return unlocked;\r\n    }\r\n\r\n    function isFrozen() constant public returns (bool status) {\r\n        return frozen;\r\n    }\r\n\r\n\r\n    // Function that is called when a user or another contract wants to transfer funds .\r\n    function transfer(address _to, uint _value, bytes _data) internal  returns (bool success) {\r\n        // Only allow transfer once unlocked\r\n        // Once it is unlocked, it is unlocked forever and no one can lock again\r\n        require(unlocked);\r\n\r\n        if (isContract(_to)) {\r\n            return transferToContract(_to, _value, _data);\r\n        } else {\r\n            return transferToAddress(_to, _value, _data);\r\n        }\r\n    }\r\n\r\n    // Function that is called when a user or another contract wants to transfer funds .\r\n    function transfer(address _to, uint _value, bytes _data, string _customFallback) internal returns (bool success) {\r\n\r\n        // Only allow transfer once unlocked\r\n        // Once it is unlocked, it is unlocked forever and no one can lock again\r\n        require(unlocked);\r\n\r\n        if (isContract(_to)) {\r\n            if (balanceOf(msg.sender) < _value) {\r\n                revert();\r\n            }\r\n            balances[msg.sender] = safeSub(balanceOf(msg.sender), _value);\r\n            balances[_to] = safeAdd(balanceOf(_to), _value);\r\n            ContractReceiver receiver = ContractReceiver(_to);\r\n            receiver.call.value(0)(bytes4(keccak256(_customFallback)), msg.sender, _value, _data);\r\n            emit Transfer(msg.sender, _to, _value, _data);\r\n            return true;\r\n        } else {\r\n            return transferToAddress(_to, _value, _data);\r\n        }\r\n    }\r\n\r\n    // Standard function transfer similar to ERC20 transfer with no _data .\r\n    // Added due to backwards compatibility reasons .\r\n    function transfer(address _to, uint _value) public returns (bool success) {\r\n        // Only allow transfer once unlocked\r\n        // Once it is unlocked, it is unlocked forever and no one can lock again\r\n        require(unlocked);\r\n\r\n        //standard function transfer similar to ERC20 transfer with no _data\r\n        //added due to backwards compatibility reasons\r\n        bytes memory empty;\r\n        if (isContract(_to)) {\r\n            return transferToContract(_to, _value, empty);\r\n        }\r\n        else {\r\n            return transferToAddress(_to, _value, empty);\r\n        }\r\n    }\r\n    // assemble the given address bytecode. If bytecode exists then the _addr is a contract.\r\n    function isContract(address _addr) private returns (bool _isContract) {\r\n        uint length;\r\n        assembly {\r\n            //retrieve the size of the code on target address, this needs assembly\r\n            length := extcodesize(_addr)\r\n        }\r\n        return (length > 0);\r\n    }\r\n\r\n    // function that is called when transaction target is an address\r\n    function transferToAddress(address _to, uint _value, bytes _data) private returns (bool success) {\r\n        if (balanceOf(msg.sender) < _value) {\r\n            revert();\r\n        }\r\n        balances[msg.sender] = safeSub(balanceOf(msg.sender), _value);\r\n        balances[_to] = safeAdd(balanceOf(_to), _value);\r\n        emit Transfer(msg.sender, _to, _value, _data);\r\n        return true;\r\n    }\r\n\r\n    // function that is called when transaction target is a contract\r\n    function transferToContract(address _to, uint _value, bytes _data) private returns (bool success) {\r\n        if (balanceOf(msg.sender) < _value) {\r\n            revert();\r\n        }\r\n        balances[msg.sender] = safeSub(balanceOf(msg.sender), _value);\r\n        balances[_to] = safeAdd(balanceOf(_to), _value);\r\n        ContractReceiver receiver = ContractReceiver(_to);\r\n        receiver.tokenFallback(msg.sender, _value, _data);\r\n        emit Transfer(msg.sender, _to, _value, _data);\r\n        return true;\r\n    }\r\n\r\n    // Get balance of the address provided\r\n    function balanceOf(address _owner) constant public returns (uint256 balance) {\r\n        return balances[_owner];\r\n    }\r\n\r\n     // Creator/Owner can unlock it once and it can never be locked again\r\n     // Use after airdrop is complete\r\n    function unlockForever() onlyOwner public {\r\n        unlocked = true;\r\n    }\r\n\r\n    function toggleFreeze() onlyOwner public {\r\n        if(frozen == true){\r\n            frozen = false;\r\n        } else {\r\n            frozen = true;\r\n        }\r\n        emit Frozen(now);\r\n    }\r\n\r\n    // Allow transfers if the owner provided an allowance\r\n    // Prevent from any transfers if token is not yet unlocked\r\n    // Use SafeMath for the main logic\r\n    function transferFrom(address _from, address _to, uint256 _value) public returns (bool success) {\r\n        // Only allow transfer once unlocked\r\n        // Once it is unlocked, it is unlocked forever and no one can lock again\r\n        require(unlocked);\r\n        // Protect against wrapping uints.\r\n        require(balances[_from] >= _value && allowed[_from][msg.sender] >= _value && balances[_to] + _value > balances[_to]);\r\n        uint256 allowance = allowed[_from][msg.sender];\r\n        require(balances[_from] >= _value && allowance >= _value);\r\n        balances[_to] = safeAdd(balanceOf(_to), _value);\r\n        balances[_from] = safeSub(balanceOf(_from), _value);\r\n        if (allowance < MAX_UINT256) {\r\n            allowed[_from][msg.sender] = safeSub(allowed[_from][msg.sender], _value);\r\n        }\r\n        emit Transfer(_from, _to, _value);\r\n        return true;\r\n    }\r\n\r\n    function approve(address _spender, uint256 _value) public returns (bool success) {\r\n        // Only allow transfer once unlocked\r\n        // Once it is unlocked, it is unlocked forever and no one can lock again\r\n        require(unlocked);\r\n        allowed[msg.sender][_spender] = _value;\r\n        emit Approval(msg.sender, _spender, _value);\r\n        return true;\r\n    }\r\n\r\n    function allowance(address _owner, address _spender) constant public returns (uint256 remaining) {\r\n      return allowed[_owner][_spender];\r\n    }\r\n}",
  "sourcePath": "/Users/al/Desktop/alekoin/contracts/ERC223.sol",
  "compiler": {
    "name": "solc",
    "version": "0.4.24+commit.e67f0147.Emscripten.clang"
  },
  "schemaVersion": "2.0.0",
  "updatedAt": "2018-08-17T13:58:49.988Z"
}